S01C00005247425F4C45445F4452495645525F424F4152442E7372656307
S11300000C9434000C94BB020C94C7020C94510061
S11300100C9451000C9451000C9451000C94510018
S11300200C9451000C9451000C9451000C94510008
S11300300C9451000C9451000C9451000C945100F8
S11300400C9451000C9451000C9451000C945100E8
S11300500C9451000C9451000C9451000C945100D8
S11300600C9451000C94510011241FBECFEFD8E022
S1130070DEBFCDBF11E0A0E0B1E0EAE8F8E002C0E5
S113008005900D92A230B107D9F721E0A2E0B1E0CA
S113009001C01D92AC30B207E1F70E9485020C94B6
S11300A043040C940000ECE7F0E080E4808380815A
S11300B08083808180628083808180648083EAE79A
S11300C0F0E084E080838081806880830895ECE799
S11300D0F0E08081807E8083EAE7F0E080818064C4
S11300E08083808184FFFDCF80917900EAE7F0E08E
S11300F09081906190830895E0E8F0E08081816AC6
S11301008083E1E8F0E08081846080830895E0EBFF
S1130110F0E08081816A8083E1EBF0E08081866099
S113012080830895E9E6F0E080818A6080838DB35E
S113013083608DBB789408958FE384B99AB19AB99A
S11301409BB19C619BB917B888B9089590E09093CE
S11301508B0080938A0070E070938900609388001C
S11301604093B3002FE789EA93E021508040904008
S1130170E1F700C0000010928B0010928A001092E8
S11301808900109288001092B3002FE789EA93E067
S1130190215080409040E1F700C0000008950F9383
S11301A01F93CF93DF938AB180668AB98BB18F791D
S11301B08BB95E9A8FE891E00197F1F700C00000D7
S11301C05D9A87EC90E00197F1F700C000005D981C
S11301D087EC90E00197F1F700C000005E985D9A0B
S11301E087EC90E00197F1F700C00000C2E0D1E095
S11301F009E011E05D9890EA9A95F1F70E94670092
S113020089935D9A87EC90E00197F1F700C00000B4
S1130210C017D10779F7DF91CF911F910F910895FE
S11302204F925F926F927F928F929F92AF92BF9202
S1130230CF92DF92EF92FF920F931F93CF93DF93AE
S11302400E94CF00809102012091030130E0280F29
S1130250311D3595279520930A0140910401809121
S1130260050190E0840F911D40910601840F911DBA
S113027063E070E00E941B048B0160930B0180918A
S11302800701C0910801D0E0C80FD11DD595C795CD
S1130290C0930901B9017727882777FD8095982FA6
S11302A00E9404036B017C011127B801882777FDA4
S11302B08095982F0E9404034B015C01DD27BE0149
S11302C0882777FD8095982F0E9404032B013C0119
S11302D020E030E04AE253E4C701B6010E9468031B
S11302E0882364F420E030E040EC5FE3C701B6010A
S11302F00E946C030E94D602F62E02C0FF24FA94D8
S113030020E030E04FE753E4C501B4010E946803E4
S113031088230CF00FEF20E030E044E553E4C30100
S1130320B2010E94680388230CF0CFEF6F2D70E0B8
S1130330709389006093880010E010938B00009301
S11303408A00C093B300DF91CF911F910F91FF906A
S1130350EF90DF90CF90BF90AF909F908F907F9061
S11303606F905F904F900895CF93DF932091000199
S113037091E0611101C090E09923C1F191E0213035
S113038009F090E0992391F190E0C8E8D0E0A3EB64
S1130390B0E0EAE8F0E041E050E0823049F0833038
S11303A061F0813059F4292F30E03183208306C075
S11303B0292F30E03983288301C09C939F5F2FEF5E
S11303C035EA7EE0215030407040E1F700C0000083
S11303D030910001242F961708F0252F222331F0A5
S11303E0242F313009F0252F2111D7CFDF91CF9160
S11303F008950F931F93CF93DF932091000191E011
S1130400611101C090E09923F1F191E0213009F0EC
S113041090E09923C1F190E0262F30E0C8E8D0E0C5
S1130420A3EBB0E0EAE8F0E071E010E0823051F0D4
S1130430833071F0813079F4A901491B510951834A
S1130440408309C0A901491B51095983488303C04A
S1130450462F491B4C939F5F0FEF45EA5EE0015026
S113046040405040E1F700C0000050910001472F88
S1130470961708F0412F442331F0472F513009F0EB
S1130480412F4111D3CFDF91CF911F910F91089547
S113049088E790E090938B0080938A001092890003
S11304A0109288001092B30080910001813061F5B0
S11304B068E782E00E94B40168E781E00E94F901E4
S11304C068E783E00E94B40168E781E00E94B40118
S11304D068E782E00E94F90168E781E00E94F9017F
S11304E068E783E00E94F90168E781E00E94B401B3
S11304F068E782E00E94B40168E782E00E94F901A3
S1130500809100018130A1F208950E949C000E9414
S113051053000E947C000E9487000E9492000F2ECC
S1130520FAE8CF2ED12CF02DEE24E394F12C08E838
S113053010E0C3EBD0E0BB24B39480910001813080
S113054049F028F0823049F08F3F69F0F6CF0E94DD
S11305501001F3CF0E944802F0CF44E664E684E63B
S11305600E94A600EACFF601F182E082F80111822E
S11305701082B882E2CF1F920F920FB60F9211240D
S1130580109200010F900FBE0F901F9018951F92AC
S11305900F920FB60F9211248F9381E08093000184
S11305A08F910F900FBE0F901F90189570D088F008
S11305B09F5790F0B92F9927B751A0F0D1F0660F4B
S11305C0771F881F991F1AF0BA95C9F712C0B13066
S11305D081F077D0B1E0089574C0672F782F882711
S11305E0B85F39F0B93FCCF3869577956795B395A5
S11305F0D9F73EF490958095709561957F4F8F4F14
S11306009F4F0895E89409C097FB3EF49095809518
S1130610709561957F4F8F4F9F4F9923A9F0F92FC4
S113062096E9BB279395F695879577956795B79542
S1130630F111F8CFFAF4BB0F11F460FF1BC06F5F28
S11306407F4F8F4F9F4F16C0882311F096E911C03A
S1130650772321F09EE8872F762F05C0662371F05B
S113066096E8862F70E060E02AF09A95660F771F6F
S1130670881FDAF7880F9695879597F9089557FD9F
S11306809058440F551F59F05F3F71F04795880FFC
S113069097FB991F61F09F3F79F087950895121693
S11306A013061406551FF2CF4695F1DF08C016163F
S11306B017061806991FF1CF8695710561050894F0
S11306C00895E894BB2766277727CB0197F9089507
S11306D066D008F48FEF08950BD09CC08DD028F01D
S11306E092D018F0952309F07EC083C01124EACF7C
S11306F0C6DFA0F3959FD1F3950F50E0551F629F7D
S1130700F001729FBB27F00DB11D639FAA27F00D66
S1130710B11DAA1F649F6627B00DA11D661F829F8D
S11307202227B00DA11D621F739FB00DA11D621F72
S1130730839FA00D611D221F749F3327A00D611D8F
S1130740231F849F600D211D822F762F6A2F112471
S11307509F5750408AF0E1F088234AF0EE0FFF1FC4
S1130760BB1F661F771F881F91505040A9F79E3FFB
S1130770510570F038C0A6CF5F3FECF3983EDCF330
S1130780869577956795B795F795E7959F5FC1F738
S1130790FE2B880F911D9695879597F90895990FCB
S11307A00008550FAA0BE0E8FEEF16161706E80737
S11307B0F907C0F012161306E407F50798F0621B58
S11307C0730B840B950B39F40A2661F0232B242B2D
S11307D0252B21F408950A2609F4A140A6958FEF4C
S11307E0811D811D089597F99F6780E870E060E09E
S11307F008959FEF80EC089500240A9416161706B6
S113080018060906089500240A94121613061406FD
S113081005060895092E0394000C11F4882352F060
S1130820BB0F40F4BF2B11F460FF04C06F5F7F4F18
S11308308F4F9F4F089597FB072E16F4009407D00F
S113084077FD09D00E942F0407FC05D03EF4909553
S113085081959F4F0895709561957F4F0895AA1BC8
S1130860BB1B51E107C0AA1FBB1FA617B70710F097
S1130870A61BB70B881F991F5A95A9F780959095C9
S10D0880BC01CD010895F894FFCFE8
S105088AFF0069
S9030000FC
